:1000000045C0000061C000005FC000005DC000008E
:100010005BC0000059C0000057C0000055C0000080
:1000200053C0000051C000000C94910A4DC0000064
:100030004BC0000049C0000047C00000F5C20000EE
:1000400043C0000041C000003FC000003DC00000B0
:100050003BC0000039C0000037C0000035C00000C0
:1000600033C0000031C000002FC000002DC00000D0
:100070002BC0000029C0000027C0000025C00000E0
:1000800023C0000021C000001FC0000011241FBEBB
:10009000CFEFD0E1DEBFCDBF12E0A0E0B1E0EAE4F7
:1000A000FAE100E00BBF02C007900D92AA3EB10733
:1000B000D9F726E0AAEEB2E001C01D92A63FB20732
:1000C000E1F703D00C94230D9BCF71D080E090E03A
:1000D0000895CF92DF92EF92FF920F931F93CF93E9
:1000E000DF93D82FC62F82E0E82EED0E1CEF160FFF
:1000F0006E2D812F93D793E0F92EFD0E6F2D812F5A
:100100008DD704E00D0F602F812F88D71DEF1C0FB6
:100110006E2D812F83D76F2D812F80D7602F812F58
:100120007DD725E0D22EDD0E6D2D812F77D766E0AD
:100130006D0F812F73D71EEF1C0F6E2D812F6ED781
:100140006F2D812F6BD7602F812F68D71FEF1C0F6A
:100150006D2F812F63D7CC24C394CD0E6C2D812FAE
:100160005DD76E2D812F5AD76F2D812F57D7602FD6
:10017000812F54D76D2D812F51D76D2F8C2F4ED7B6
:100180006C2D8C2F4BD76E2D8C2F48D76F2D8C2F2D
:1001900045D7602F8C2F42D76D2D8C2FDF91CF91BB
:1001A0001F910F91FF90EF90DF90CF9037C7CF93C3
:1001B000DF93CDB7DEB768970FB6F894DEBF0FBEFA
:1001C000CDBF0E946B0A9E012F5F3F4F3E872D8758
:1001D0008CE0F90111928A95E9F711BA0E94050D98
:1001E00068E770E00E945E0C9C012B5F3F4F3B8BE9
:1001F0002A8B0E94050D6FE070E00E945E0CAC013E
:10020000415F5F4F5D8B4C8B51E0588F212C812CCF
:10021000912C1F8A1E8AA12CB12C82E0482E9EE3CD
:10022000E92EF12C2FE1C22ED12CCE010D96988B08
:100230008F87498A83E033D28C0184E030D29C01DD
:10024000C801929582958F7089279F7089274F9753
:100250006FE070E00E945E0CC60ED71E36952795A3
:1002600036952795369527958FE390E0821B930B63
:100270006FE070E00E945E0CE60EF71E95E0E91656
:10028000F1040CF4DCC0ECE7EE16F1041CF0BBE763
:10029000EB2EF12CF5E0CF16D1040CF4CCC02CE3FE
:1002A000C216D1041CF0FBE3CF2ED12C3FEF41EE60
:1002B00054E0315040405040E1F700C00000BCD550
:1002C0001ED79401ABEABAEA0E948D0C96958795E9
:1002D0009C01220F331F820F931F88169906A1F4E9
:1002E0008A899B8906970CF023C1EA89FB8932969B
:1002F000FB8BEA8B8C899D8940970CF009C1EC89B6
:10030000FD893296FD8BEC8B6C897D898A899B896E
:10031000E0DE8E010F5F1F4FF8016080552453947B
:10032000560C7280652D872D79D652E0352E360C0D
:10033000632D872D73D644244394470C662D842D5A
:100340006DD6632D842D6AD6652D82E0870D66D625
:100350000C5F1F4F2F85388920173107E9F665E0BC
:1003600085E05CD63989832F90E00E94EC0920E576
:100370004AE062E08AE0D2D645E06E2D8C2D6FD740
:100380006E2D8CEF8C0D4AD669E185E047D6C5010C
:100390000E94EC096DE285E041D68E899F890E941A
:1003A000EC09849904C04989442309F46BC0950180
:1003B000ADECBCEC0E948D0C969587959695879533
:1003C0009C01220F331F220F331F820F931F9501B1
:1003D000A3E9B4E2A816B906B1F521102AC0212C70
:1003E0002989222329F02150298B253009F4AFC017
:1003F000FFEF8F1A9F0A1ECF3FEFA31AB30A87D4CD
:100400009501ADECBCEC0E948D0C96958795969568
:1004100087959C01220F331F220F331F820F931FDA
:100420009501A3E9B4E2A816B90609F0DCC04AE0D8
:10043000498BF6D2D4CFE5E0CE2ED12C37CFA5E034
:10044000EA2EF12C27CF0E948D0C281B390B3695F4
:100450002795820F931F96958795969587959C0172
:10046000220F331F220F331F220F331FF901E81B06
:10047000F90BAE16BF0609F0B3CF222009F4AFCFB7
:100480003ED1ADCF41EE52E060E080E06CD5C701D7
:10049000EA89FB898E1B9F0B05960B9748F4C601D2
:1004A0002C893D89821B930B05960B9708F4A4CFEA
:1004B000C70183970B9708F068C05BE0C516D104AD
:1004C0000CF48BC0F88D8F2F90E0FC013197EE0F6C
:1004D000FF1F21E030E02C0F3D1FE20FF31FF182E0
:1004E000E082FC01EE0FFF1FE20FF31FD182C082FA
:1004F000029666E070E00E945E0C888F4E895F89EC
:100500004F5F5F4F5F8B4E8BDAD05AE0598B4FCFE6
:100510000E94050D8170907897FD55C0019709F4F0
:1005200044C04C895D894A3351050CF0EDCEE7CECD
:100530000E94050D8170907897FD4AC00197E1F106
:100540004A895B89483751050CF0D4CECECE2220A3
:1005500009F44ECF0E94050D68E770E00E945E0C22
:10056000AC014B5F5F4F5B8B4A8B0E94050D6BE3C9
:1005700070E00E945E0CFC013F96FD8BEC8BBF018E
:100580008A899B89A6DD212C33CFC701C7970B979A
:1005900008F098CF9BE0C916D1040CF093CF09D393
:1005A0001F8A1E8AEAE0E98B02CF2C893D892250FE
:1005B00031093D8B2C8BA8CE2A893B8922503109E9
:1005C0003B8B2A8B97CE01978E6F9F6F0196A6CF9C
:1005D00001978E6F9F6F0196B1CFEBD2A12CB12CFA
:1005E0008AE0898BFACE0E948D0C281B390B369538
:1005F0002795820F931F96958795969587959C01D1
:10060000220F331F220F331F220F331FA901481B54
:10061000590BA416B50629F02224239459E0598BCE
:10062000E7CEFAE0F98B2CCF1F920F920FB60F9204
:1006300011242F933F935F936F937F938F939F9397
:10064000AF93BF932091EA023091EB02C90164E6B7
:1006500070E00E945E0C892B39F488B3809588BBCA
:100660002091EA023091EB022F5F3F4F3093EB0273
:100670002093EA02BF91AF919F918F917F916F91EB
:100680005F913F912F910F900FBE0F901F90189583
:1006900016B817B880E888B983EC86B9089593EC4A
:1006A00096B9806487B9369A349BFECF24B185B160
:1006B00016B890E0982F8827820F911D08952BE49B
:1006C00030E0809165008061809365008BE891E067
:1006D00045E04A95F1F700000197D1F78091650058
:1006E0008F7E809365008BE891E045E04A95F1F7B5
:1006F00000000197D1F72150310919F7089523EB34
:1007000030E08091650080618093650088EC90E026
:1007100045E04A95F1F700000197D1F78091650017
:100720008F7E8093650088EC90E045E04A95F1F774
:1007300000000197D1F72150310919F78FEF93ECA1
:1007400029E0815090402040E1F700C0000023EBF9
:1007500030E08091650080618093650088EC90E0D6
:1007600045E04A95F1F700000197D1F780916500C7
:100770008F7E8093650088EC90E045E04A95F1F724
:1007800000000197D1F72150310919F78FEF93EC51
:1007900029E0815090402040E1F700C0000023E1B3
:1007A00030E08091650080618093650088EC90E086
:1007B00045E04A95F1F700000197D1F78091650077
:1007C0008F7E8093650088EC90E045E04A95F1F7D4
:1007D00000000197D1F72150310919F78FEF93EC01
:1007E00029E0815090402040E1F700C0000023E163
:1007F00030E08091650080618093650088EC90E036
:1008000045E04A95F1F700000197D1F78091650026
:100810008F7E8093650088EC90E045E04A95F1F783
:1008200000000197D1F72150310919F78FEF93ECB0
:1008300029E0815090402040E1F700C0000029EC01
:1008400030E08091650080618093650088EC90E0E5
:1008500045E04A95F1F700000197D1F780916500D6
:100860008F7E8093650088EC90E045E04A95F1F733
:1008700000000197D1F72150310919F78FEF9BE460
:100880002DE1815090402040E1F700C0000023EBB3
:1008900030E08091650080618093650088EC90E095
:1008A00045E04A95F1F700000197D1F78091650086
:1008B0008F7E8093650088EC90E045E04A95F1F7E3
:1008C00000000197D1F72150310919F78FEF93EC10
:1008D00029E0815090402040E1F700C0000023EB68
:1008E00030E08091650080618093650088EC90E045
:1008F00045E04A95F1F700000197D1F78091650036
:100900008F7E8093650088EC90E045E04A95F1F792
:1009100000000197D1F72150310919F78FEF93ECBF
:1009200029E0815090402040E1F700C0000023E121
:1009300030E08091650080618093650088EC90E0F4
:1009400045E04A95F1F700000197D1F780916500E5
:100950008F7E8093650088EC90E045E04A95F1F742
:1009600000000197D1F72150310919F78FEF93EC6F
:1009700029E0815090402040E1F700C0000023E1D1
:1009800030E08091650080618093650088EC90E0A4
:1009900045E04A95F1F700000197D1F78091650095
:1009A0008F7E8093650088EC90E045E04A95F1F7F2
:1009B00000000197D1F72150310919F78FEF93EC1F
:1009C00029E0815090402040E1F700C000002CE475
:1009D00030E08091650080618093650088EC90E054
:1009E00045E04A95F1F700000197D1F78091650045
:1009F0008F7E8093650088EC90E045E04A95F1F7A2
:100A000000000197D1F72150310919F78FEF9BE4CE
:100A10002DE1815090402040E1F700C00000089592
:100A20002EE031E08091650080618093650088EC64
:100A300090E045E04A95F1F700000197D1F78091E9
:100A400065008F7E8093650088EC90E045E04A95D4
:100A5000F1F700000197D1F72150310919F78FEF15
:100A600091EE24E0815090402040E1F700C000006A
:100A700021E331E08091650080618093650088EC1E
:100A800090E045E04A95F1F700000197D1F7809199
:100A900065008F7E8093650088EC90E045E04A9584
:100AA000F1F700000197D1F72150310919F78FEFC5
:100AB00091EE24E0815090402040E1F700C000001A
:100AC00024E330E08091650080618093650088ECCC
:100AD00090E045E04A95F1F700000197D1F7809149
:100AE00065008F7E8093650088EC90E045E04A9534
:100AF000F1F700000197D1F72150310919F78FEF75
:100B000091EE24E0815090402040E1F700C00000C9
:100B100021E331E08091650080618093650088EC7D
:100B200090E045E04A95F1F700000197D1F78091F8
:100B300065008F7E8093650088EC90E045E04A95E3
:100B4000F1F700000197D1F72150310919F78FEF24
:100B500091EE24E0815090402040E1F700C0000079
:100B60002CE030E08091650080618093650088EC26
:100B700090E045E04A95F1F700000197D1F78091A8
:100B800065008F7E8093650088EC90E045E04A9593
:100B9000F1F700000197D1F72150310919F78FEFD4
:100BA00091EE24E0815090402040E1F700C0000029
:100BB000089528E430E080916500806180936500AD
:100BC00088EC90E045E04A95F1F700000197D1F7F5
:100BD000809165008F7E8093650088EC90E045E011
:100BE0004A95F1F700000197D1F72150310919F723
:100BF0008FEF91EE24E0815090402040E1F700C05B
:100C0000000028E430E080916500806180936500F9
:100C100088EC90E045E04A95F1F700000197D1F7A4
:100C2000809165008F7E8093650088EC90E045E0C0
:100C30004A95F1F700000197D1F72150310919F7D2
:100C400024E330E08091650080618093650088EC4A
:100C500090E045E04A95F1F700000197D1F78091C7
:100C600065008F7E8093650088EC90E045E04A95B2
:100C7000F1F700000197D1F72150310919F728E465
:100C800030E08091650080618093650088EC90E0A1
:100C900045E04A95F1F700000197D1F78091650092
:100CA0008F7E8093650088EC90E045E04A95F1F7EF
:100CB00000000197D1F72150310919F728E030E001
:100CC0008091650080618093650080E991E045E056
:100CD0004A95F1F700000197D1F7809165008F7E6A
:100CE0008093650080E991E045E04A95F1F70000C6
:100CF0000197D1F72150310919F78FEF93EC29E0D3
:100D0000815090402040E1F700C00000089521E2AA
:100D100030E0809165008061809365008CED95E006
:100D200045E04A95F1F700000197D1F78091650001
:100D30008F7E809365008CED95E045E04A95F1F754
:100D400000000197D1F72150310919F78FEF91EE8B
:100D500024E0815090402040E1F700C00000089559
:100D6000982F9695969596958770A1F0813009F405
:100D700057C0823009F458C0833009F453C084301E
:100D800009F454C0853009F453C0863009F452C0C8
:100D900080E801C081E020E8929FF0011124ED502D
:100DA000FD4FE60FF11D2081822B808398549BBB61
:100DB0001C981E9A1F9A1D9A1D9885E38A95F1F733
:100DC00000006034B0F06BBB1C981E9A1F981D9AEF
:100DD0001D9825E32A95F1F7000080818BBB1C9AB2
:100DE0001E9A1F981D9A1D9885E38A95F1F70000B9
:100DF0000895605C6BBB1C981E981F9A1D9A1D98E5
:100E000025E32A95F1F7000080818BBB1C9A1E9880
:100E10001F9A1D9A1D9885E38A95F1F700000895A1
:100E200082E0B9CF88E0B7CF84E0B5CF80E1B3CF1F
:100E300080E2B1CF80E4AFCF98EB20E49BBB1C985D
:100E40001E9A1F9A1D9A1D9835E33A95F1F70000F6
:100E50002BBB1C981E9A1F9A1D9A1D9885E38A9594
:100E6000F1F7000080E41BBA1C9A1E9A1F9A1D9A83
:100E70001D9835E33A95F1F700008150A1F79F5F87
:100E8000903CE1F608958FE38BBB1C981E9A1F9A45
:100E90001D9A1D9885E38A95F1F7000080EC8BBBC5
:100EA0001C981E9A1F9A1D9A1D9885E38A95F1F742
:100EB000000088EB8BBB1C981E9A1F9A1D9A1D98E8
:100EC00085E38A95F1F7000080E48BBB1C981E9A9D
:100ED0001F9A1D9A1D9885E38A95F1F700000895E1
:100EE00090E08097FC01EE0FFF1FEE0FFF1FE80F51
:100EF000F91FEC5FFE4F85E09091F3069A30F0F415
:100F000090819BBB1C9A1E981F9A1D9A1D9895E371
:100F10009A95F1F70000815031968111EDCF8091C3
:100F2000F3061BBA1C9A8A30A8F01E9A1F981D9AC5
:100F30001D9895E39A95F1F70000089590819BBB69
:100F40001C9A1E9A1F981D9A1D9895E39A95F1F781
:100F50000000E1CF1E981F9A1D9A1D9885E38A957F
:100F6000F1F7000008951F93CF93DF93EA01809378
:100F7000F0026093F30688548BBB1C981E9A1F9A4C
:100F80001D9A1D9885E38A95F1F700008091F3067C
:100F90008A30A0F190E00A97982F990F890F880F57
:100FA000805C8BBB1C981E9A1F981D9A1D9885E328
:100FB0008A95F1F7000088818823E1F09091F3068B
:100FC00010E40AC08DDF21969091F3069F5F909305
:100FD000F3068881882371F09A30A1F71BBB1C9817
:100FE0001E9A1F981D9A1D9885E38A95F1F70000B7
:100FF0008881E8CFDF91CF911F910895982F990FA5
:10100000890F880F8C5B8BBB1C981E981F9A1D9AAA
:101010001D9885E38A95F1F70000CDCF803408F064
:101020004AC067FD48C0982F96959695969587700B
:10103000A1F0813009F440C0823009F458C08330F7
:1010400009F457C0843009F456C0853009F44DC006
:10105000863009F452C080E801C081E020E8929F08
:10106000F0011124ED50FD4FE60FF11D2081822B80
:10107000808398549BBB1C981E9A1F9A1D9A1D989A
:1010800085E38A95F1F700006034C0F06BBB1C98D3
:101090001E9A1F981D9A1D9825E32A95F1F70000C6
:1010A00080818BBB1C9A1E9A1F981D9A1D9885E300
:1010B0008A95F1F70000089582E0D0CF605C6BBBA9
:1010C0001C981E981F9A1D9A1D9825E32A95F1F7E2
:1010D000000080818BBB1C9A1E981F9A1D9A1D9838
:1010E00085E38A95F1F70000089580E2B7CF84E0A8
:1010F000B5CF88E0B3CF80E1B1CF80E4AFCFE3EFED
:10110000F2E023EF36E0CF0180589F4F1192E817AD
:10111000F907E1F72E173F07B1F708958F929F92D5
:10112000AF92BF92CF92DF92EF92FF920F931F93F5
:10113000CF93DF93C62F621709F456C0621780F56C
:10114000D0E0C22ED12CCC16DD06ECF0082F10E03A
:1011500046018C1A9D0AE42EF12CE01AF10AA12C0A
:10116000B12CC501B401AAD3CB01800F911F8034EB
:1011700020F4C7FD02C06C2FF3DD2196AE0CBF1C1E
:10118000CC16DD0674F7DF91CF911F910F91FF9080
:10119000EF90DF90CF90BF90AF909F908F90089589
:1011A000D0E0C22ED12CCC15DD056CF3082F10E059
:1011B000E42EF12CE01AF10A46018C1A9D0AA12CAA
:1011C000B12CC501B4017AD3CB01800F911F8034BB
:1011D00020F4C7FD02C06C2FC3DD2197AE18BF08F5
:1011E000CC15DD0574F7CFCF841739F1082F10E047
:1011F000E42EF12C841780F4E016F10624F267FD4A
:10120000C2CF003418F46C2F802FAADD0F5F1F4F60
:10121000E016F106B4F7B7CF0E151F050CF4B3CFE7
:1012200067FDB1CF003418F46C2F802F99DD015089
:1012300011090E151F05B4F7A6CF803408F0A3CF0F
:1012400067FDA1CFDF91CF911F910F91FF90EF909C
:10125000DF90CF90BF90AF909F908F9081CD3F92C5
:101260004F925F926F927F928F929F92AF92BF92B6
:10127000CF92DF92EF92FF920F931F93CF93DF9362
:10128000E82E462E542EA62EB12C842F90E06C0111
:10129000CC0CDD1CC80ED91EE601D7FC9BC0D59531
:1012A000C795D595C795002711270C1B1D0BE50188
:1012B000C00FD11FD594C794D594C79445018C0C09
:1012C0009D1C8C169D060CF43AC0559C30011124CF
:1012D0000EC0C7FD08C06C2F43DD8E2D8F198034E2
:1012E00010F4632D3DDD21968C169D0644F1CE0150
:1012F0008A199B09889F9001899F300D300D112418
:10130000B301621B730B072E000C880B990BDFD106
:101310006ED220E030E040E05FE347D1AAD1F62E64
:101320003C2E8E2D8F0D8034A0F28E2D8F1980349F
:10133000D0F6C7FFD6CF21968C169D06C4F6F12CA9
:10134000E801CE0DDF1DCE0CDF1CCC16DD0684F1CE
:10135000559C80011124CE018E199F09889F900110
:10136000899F300D300D1124B801621B730B072EBD
:10137000000C880B990BABD13AD2BC2E2FE32C1763
:1013800098F020E030E040E05FE30FD172D1A62E6C
:10139000642D6A0D67FD02C08C2FE2DC642D6A1992
:1013A00067FD02C08B2DDCDC2196CC16DD069CF699
:1013B000DF91CF911F910F91FF90EF90DF90CF9031
:1013C000BF90AF909F908F907F906F905F904F9065
:1013D0003F900895239663CF0F931F93CF93DF938E
:1013E000AC019C013695279536952795369527951E
:1013F000A5ECB0E292D2EC01D295C295CF70CD2788
:10140000DF70CD2728EE33E0C29FC001C39F900D4F
:10141000D29F900D1124EA01C81BD90B9E0136956D
:10142000279536952795ABE7B4E177D28C011695D1
:101430000795011137C080E253DD24E6209FC001EB
:10144000219F900D1124C81BD90B9E01ADECBCEC63
:1014500064D29695879596958795969587958823D6
:10146000B9F1805D3DDD9E01ADECBCEC56D29695A8
:10147000879596958795969587959C01220F331FA2
:10148000880F991F880F991F880F991F820F931F2C
:101490009E01281B390BC901805DDF91CF911F91FF
:1014A0000F911ECD80E3800F1BDD24E6209FC0013D
:1014B000219F900D1124C81BD90B9E01ADECBCECF3
:1014C0002CD2969587959695879596958795C9CFB1
:1014D00080E206DDC8CFF8940ED006D01AD04FD0E7
:1014E000D7D8D1DC789408958AE080936A001ABE38
:1014F00083E089BF08951BBA8FEF8ABB88BB87BB87
:1015000012BA11BA13B882B91092650080936400C0
:10151000089515BC8AE184BD83E085BD80E487BF62
:1015200008951F920F920FB60F9211242F933F939D
:101530008F939F938AE184BD8091EE029091EF0298
:1015400001969093EF028093EE022091DF0230919A
:10155000E0028217930751F481E090E09093ED024E
:101560008093EC021092EF021092EE029F918F9105
:101570003F912F910F900FBE0F901F9018951092D2
:101580009B0086E080939D0088E980939A0087E61F
:1015900090E09093F5068093F40610929800809165
:1015A000F4068093990008955058BB27AA270ED0BF
:1015B000E0C0D1D030F0D6D020F031F49F3F11F40C
:1015C0001EF4C6C00EF4E095E7FBBCC0E92FE2D0E4
:1015D00080F3BA17620773078407950718F071F450
:1015E0009EF5FAC00EF4E0950B2EBA2FA02D0B013C
:1015F000B90190010C01CA01A0011124FF27591B58
:1016000099F0593F50F4503E68F11A16F040A22F5D
:10161000232F342F4427585FF3CF469537952795CE
:10162000A795F0405395C9F77EF41F16BA0B620BCD
:10163000730B840BBAF09150A1F0FF0FBB1F661F14
:10164000771F881FC2F70EC0BA0F621F731F841F57
:1016500048F4879577956795B795F7959E3F08F07D
:10166000B3CF9395880F08F09927EE0F979587953C
:10167000089598D088F09F5790F0B92F9927B751C7
:10168000A0F0D1F0660F771F881F991F1AF0BA9546
:10169000C9F712C0B13081F09FD0B1E008959CC06D
:1016A000672F782F8827B85F39F0B93FCCF386953C
:1016B00077956795B395D9F73EF490958095709599
:1016C00061957F4F8F4F9F4F0895E89409C097FB16
:1016D0003EF490958095709561957F4F8F4F9F4F09
:1016E0009923A9F0F92F96E9BB279395F69587954D
:1016F00077956795B795F111F8CFFAF4BB0F11F410
:1017000060FF1BC06F5F7F4F8F4F9F4F16C08823B6
:1017100011F096E911C0772321F09EE8872F762FEC
:1017200005C0662371F096E8862F70E060E02AF02D
:101730009A95660F771F881FDAF7880F9695879519
:1017400097F9089597F99F6780E870E060E0089541
:101750009FEF80EC089500240A94161617061806C9
:101760000906089500240A941216130614060506A5
:101770000895092E0394000C11F4882352F0BB0F36
:1017800040F4BF2B11F460FF04C06F5F7F4F8F4F99
:101790009F4F089557FD9058440F551F59F05F3FD4
:1017A00071F04795880F97FB991F61F09F3F79F083
:1017B00087950895121613061406551FF2CF469505
:1017C000F1DF08C0161617061806991FF1CF869587
:1017D0007105610508940895E894BB27662777276B
:1017E000CB0197F9089511F40EF4B2CF3EC0DADFC1
:1017F000D0F39923D9F3CEF39F57550B87FF43D0EE
:101800000024A0E640EA900180585695979528F468
:10181000805C660F771F881F20F026173707480760
:1018200030F4621B730B840B202931294A2BA695B7
:1018300017940794202531254A2758F7660F771FFC
:10184000881F20F026173707480730F4620B730B08
:10185000840B200D311D411DA09581F7B901842F06
:101860009158880F9695879508959F3F31F0915034
:1018700020F4879577956795B795880F911D969574
:10188000879597F9089591505040660F771F881FEC
:10189000D2F70895AA1BBB1B51E107C0AA1FBB1FAB
:1018A000A617B70710F0A61BB70B881F991F5A95EC
:1018B000A9F780959095BC01CD01089597FB072E5F
:1018C00016F4009406D077FD08D0E4DF07FC05D0BD
:1018D0003EF4909581959F4F0895709561957F4F47
:1018E0000895052E97FB16F400940FD057FD05D0F0
:1018F00023D007FC02D046F408C05095409530959F
:1019000021953F4F4F4F5F4F08959095809570956B
:1019100061957F4F8F4F9F4F0895A29FB001B39F56
:10192000C001A39F700D811D1124911DB29F700DE8
:10193000811D1124911D0895A1E21A2EAA1BBB1B23
:10194000FD010DC0AA1FBB1FEE1FFF1FA217B3078B
:10195000E407F50720F0A21BB30BE40BF50B661FA1
:10196000771F881F991F1A9469F760957095809565
:1019700090959B01AC01BD01CF0108958F929F927C
:10198000AF92BF92CF92DF92EF92FF92CF93DF930D
:10199000EC01688179818A819B81611571058105DE
:1019A000910521F464E279ED8BE597E02DE133EFC9
:1019B00041E050E096DF49015A019B01AC01A7EAE2
:1019C000B1E431D06B017C01ACEEB4EFA501940120
:1019D00036D0DC01CB018C0D9D1DAE1DBF1DB7FFA8
:1019E00003C00197A109B04888839983AA83BB8368
:1019F0009F77DF91CF91FF90EF90DF90CF90BF90D6
:101A0000AF909F908F900895B9CF80E091E0B6CFCE
:101A1000A0E0B0E08093000190930101A093020147
:101A2000B0930301089579DFA59F900DB49F900DA9
:101A3000A49F800D911D11240895B7FFF4CFF3DF0B
:0A1A4000821B930B0895F894FFCF6A
:101A4A0001000000000000000000004F0000000735
:101A5A00000700147F147F14242A7F2A12231308F4
:101A6A00646236495522500005030000001C2241D9
:101A7A00000041221C0014083E081408083E080809
:101A8A0000503000000808080808006060000020C4
:101A9A00100804023E5149453E00427F400042611F
:101AAA005149462141454B311814127F10274545AB
:101ABA0045393C4A494930017109050336494949C2
:101ACA0036064949291E00363600000056360000FF
:101ADA000814224100141414141400412214080298
:101AEA0001510906324979413E7E1111117E7F4921
:101AFA004949363E414141227F4141221C7F4949A1
:101B0A0049417F090909013E4149497A7F08080884
:101B1A007F00417F41002040413F017F081422415C
:101B2A007F404040407F020C027F7F0408107F3EC6
:101B3A004141413E7F090909063E4151215E7F0923
:101B4A00192946264949493201017F01013F40408E
:101B5A00403F1F2040201F3F4038403F6314081475
:101B6A006307087008076151494543007F414100F6
:101B7A0002040810200041417F00040201020440CF
:101B8A0040404040000102040020545454787F48E9
:101B9A004444383844444420384444487F385454F0
:101BAA005418087E0901020C5252523E7F0804045E
:101BBA007800047D00002040443D007F1028440046
:101BCA0000417F40007C0418047C7C0804047838B7
:101BDA00444444387C14141408081414187C7C08EF
:101BEA000404084854545420043F4440203C4040D4
:101BFA00207C1C2040201C3C4030403C44281028BB
:101C0A00440C5050503C4464544C44000836410043
:101C1A00000077000000413608000804081008F4A4
:0A1C2A0001426F6F6D2121210000BF
:00000001FF
