S00C00004D61696E2E7372656393
S113000045C0000060C000005EC000005CC000008D
S11300105AC0000058C0000056C0000054C0000080
S113002052C0000050C00000ACC300004CC000002F
S11300304AC0000048C0000046C000007CC0000068
S113004042C0000040C000003EC000003CC00000B0
S11300503AC0000038C0000036C0000034C00000C0
S113006032C0000030C000002EC000002CC00000D0
S11300702AC0000028C0000026C0000024C00000E0
S113008022C0000020C000001EC0000011241FBEBA
S1130090CFEFD0E1DEBFCDBF13E0A0E0B1E0EEE5ED
S11300A0FBE000E00BBF02C007900D92A233B10742
S11300B0D9F727E0A2E3B3E001C01D92AE33B20743
S11300C0E1F702D04AC59CCF03D080E090E00895C8
S11300D032D39AD003D144EF52E060E080E056D1AD
S11300E049E053E060E081E051D140E051E060E05C
S11300F082E04CD124E148E26AE08EE1B4D129E205
S113010048E26FE18EE138D245E151E065E084E0F8
S11301103DD145E067E383E24CD26CE084E0F8D063
S113012083ED94E0E2D24EE153E060E086E02ED12C
S113013080E090E008951F920F920FB60F92112461
S11301405F936F937F938F939F93AF93BF938091AC
S113015032039091330364E670E0ECD4892B19F4F4
S113016088B3809588BB80913203909133030196C4
S11301709093330380933203BF91AF919F918F91FA
S11301807F916F915F910F900FBE0F901F90189504
S113019016B817B880E888B983EC86B9089520E0CA
S11301A030E0281739073CF445E04A95F1F70000A0
S11301B02F5F3F4FF6CF08950F931F93CF93DF9395
S11301C08B0128EE33E0AC01429FC001439F900DA8
S11301D0529F900D11249AD4EB01209781F08091C5
S11301E06500806180936500C801D9DF8091650056
S11301F08F7E80936500C801D2DF2197EECFDF9117
S1130200CF911F910F91089565E670E083E290E02D
S1130210D3DF6AE570E08EE190E0CEDF60E570E068
S113022083E290E0C9DF6CE470E08EE190E0C4DF2B
S113023064E470E083E290E0BFDF6DE370E08EE1A0
S113024090E0BADF66E370E083E290E0B5DF63E359
S113025070E08EE190E0B0CF8BBB1C981E981F9A83
S11302601D9A1D9885E38A95F1F7000008958BBBCC
S11302701C981E9A1F981D9A1D9885E38A95F1F77C
S1130280000008958BBB1C981E9A1F9A1D9A1D98F6
S113029085E38A95F1F7000008958BBB1C9A1E989C
S11302A01F9A1D9A1D9885E38A95F1F70000089519
S11302B08BBB1C9A1E9A1F981D9A1D9885E38A95DC
S11302C0F1F7000008958BBB1C9A1E9A1F9A1D9A81
S11302D01D9885E38A95F1F700000895CF93DF9385
S11302E0C8EB8C2FCFDF80E4CDDFD0E480E0EBDF00
S11302F0D150E1F7CF5FC03CA1F7DF91CF910895D2
S11303008FE3C0DF80ECBEDF88EBBCDF80E4BACFD4
S11303108093380360933B078854B4DF80913B0794
S11303208A3030F4982F990F890F880F8C5B94CF03
S113033090E00A97982F990F890F880F805C97CFC8
S11303401F93CF93DF9325E0829FC0011124EC011A
S1130350C958DF4F15E080913B078A3018F4888133
S11303609CDF02C08881A4DF115021961111F3CFC4
S113037080913B078A3028F480E0DF91CF911F9170
S11303808CCF80E0DF91CF911F9192CFCF93DF93F9
S1130390EA018093380360933B07BADF888188239E
S11303A071F080913B078A3011F480E460DF899119
S11303B0C7DF80913B078F5F80933B07EFCFDF91CF
S11303C0CF910895CF93C62F88545CDFC03420F4B6
S11303D080E48C0FCF9140CF8C2FCF9148CF1F93C7
S11303E0CF93DF93982F8034D0F567FD38C086957E
S11303F086958695977071F0913071F0923071F016
S1130400933071F0943071F0953071F0963071F052
S113041090E80DC091E00BC092E009C094E007C0E1
S113042098E005C090E103C090E201C090E4162F6B
S113043020E8829FE0011124C55CDC4FC60FD11D6A
S11304402881922B9883BEDF8881103420F4DF91B9
S1130450CF911F9122CFDF91CF911F9129CFDF91AF
S1130460CF911F9108956F927F928F929F92AF9236
S1130470BF92CF92DF92EF92FF920F931F93CF938D
S1130480DF93B62E621709F441C0C62FD0E0082FBF
S113049010E0C42ED12CE22EF12C6217E8F43601C0
S11304A0601A710A812C912CC8018C199D096C0168
S11304B05701AC1ABD0A860C971CEC16FD060CF409
S11304C04CC0C601880D991DB50134D3862F6C2FFD
S11304D0800F85DF2196EFCF38016C187D08812CC1
S11304E0912CC01AD10A5701AC1ABD0A860C971C6C
S11304F0CE15DF0594F1C601880D991DB5011AD3F7
S1130500862F6C2F800F6BDF2197F0CF8417B1F00B
S1130510C82FD0E0042F10E0841740F40C171D07F7
S1130520E4F06B2D8C2F5BDF2196F8CFC017D10739
S1130530A4F06B2D8C2F53DF2197F8CFDF91CF914F
S11305401F910F91FF90EF90DF90CF90BF90AF90ED
S11305509F908F907F906F9042CFDF91CF911F91AA
S11305600F91FF90EF90DF90CF90BF90AF909F904E
S11305708F907F906F9008950F931F93CF93DF9385
S1130580C82F062F142FD22F482F6DDF2D2F412F68
S1130590602F812F68DF202F412F602F8C2F63DF86
S11305A02D2F412F6D2F8C2FDF91CF911F910F9104
S11305B05ACF5F926F927F928F929F92AF92BF9227
S11305C0CF92DF92EF92FF920F931F93CF93DF931B
S11305D0C82F562E862E912C83E0489F700111243B
S11305E0F594E794F594E794002711270E191F0951
S11305F05401A00EB11E34016E0C7F1C449F600197
S113060011246A147B042CF1C50188199909889F67
S11306109001899F300D300D1124B601621B730BBC
S1130620072E000C880B990B82D111D220E030E008
S113063040E05FE3EAD04DD1D62F6A2D8C2F8D0F89
S1130640CEDE6A2D8C2F8D1BCADE8FEFA81AB80A56
S1130650D8CFD0E00C0F1D1FEC0EFD1EE016F106E6
S113066024F1C8018C1B9D0B889F9001899F300D3C
S1130670300D1124B601621B730B072E000C880B7E
S1130680990B55D1E4D120E030E040E05FE3BDD0E8
S113069020D1B62E652D6B0D802FA1DE652D6B1933
S11306A0802F9DDE0F5F1F4FD9CFDF91CF911F9118
S11306B00F91FF90EF90DF90CF90BF90AF909F90FD
S11306C08F907F906F905F900895262F6AE012D2EA
S11306D0911106C0211104C080E232DE80E0089549
S11306E080E3890F2DDE81E00895CF93DF9360E1ED
S11306F077E20CD268EE73E009D2262FEC0160E0B9
S1130700822FE3DF382FCE0164E670E0FFD1262F7D
S1130710EC01632F822FD9DF282FCE016AE070E02D
S1130720F5D1962FC82F622F892FCFDF80E38C0F4E
S1130730DF91CF9105CEF8940ED006D01AD04FD0C9
S113074027DDDEDD789408958AE080936A001ABE7E
S113075083E089BF08951BBA8FEF8ABB88BB87BB30
S113076012BA11BA13B882B910926500809364006A
S1130770089515BC8AE184BD83E085BD80E487BF0C
S113078008951F920F920FB60F9211242F933F9347
S11307908F939F938AE184BD8091360390913703B0
S11307A0019690933703809336032091F20230919F
S11307B0F3028217930751F481E090E0909335039C
S11307C08093340310923703109236039F918F91D4
S11307D03F912F910F900FBE0F901F90189510927C
S11307E09B0086E080939D0088E980939A0087E6C9
S11307F090E090933D0780933C071092980080917D
S11308003C078093990008955058BB27AA270ED01F
S1130810E0C0D1D030F0D6D020F031F49F3F11F4B5
S11308201EF4C6C00EF4E095E7FBBCC0E92FE2D08D
S113083080F3BA17620773078407950718F071F4F9
S11308409EF5FAC00EF4E0950B2EBA2FA02D0B01E5
S1130850B90190010C01CA01A0011124FF27591B01
S113086099F0593F50F4503E68F11A16F040A22F07
S1130870232F342F4427585FF3CF46953795279578
S1130880A795F0405395C9F77EF41F16BA0B620B77
S1130890730B840BBAF09150A1F0FF0FBB1F661FBE
S11308A0771F881FC2F70EC0BA0F621F731F841F01
S11308B048F4879577956795B795F7959E3F08F027
S11308C0B3CF9395880F08F09927EE0F97958795E6
S11308D0089598D088F09F5790F0B92F9927B75171
S11308E0A0F0D1F0660F771F881F991F1AF0BA95F0
S11308F0C9F712C0B13081F09FD0B1E008959CC017
S1130900672F782F8827B85F39F0B93FCCF38695E5
S113091077956795B395D9F73EF490958095709542
S113092061957F4F8F4F9F4F0895E89409C097FBBF
S11309303EF490958095709561957F4F8F4F9F4FB2
S11309409923A9F0F92F96E9BB279395F6958795F6
S113095077956795B795F111F8CFFAF4BB0F11F4B9
S113096060FF1BC06F5F7F4F8F4F9F4F16C0882360
S113097011F096E911C0772321F09EE8872F762F96
S113098005C0662371F096E8862F70E060E02AF0D7
S11309909A95660F771F881FDAF7880F96958795C3
S11309A097F9089597F99F6780E870E060E00895EB
S11309B09FEF80EC089500240A9416161706180673
S11309C00906089500240A9412161306140605064F
S11309D00895092E0394000C11F4882352F0BB0FE0
S11309E040F4BF2B11F460FF04C06F5F7F4F8F4F43
S11309F09F4F089557FD9058440F551F59F05F3F7E
S1130A0071F04795880F97FB991F61F09F3F79F02C
S1130A1087950895121613061406551FF2CF4695AE
S1130A20F1DF08C0161617061806991FF1CF869530
S1130A307105610508940895E894BB276627772714
S1130A40CB0197F9089511F40EF4B2CF3EC0DADF6A
S1130A50D0F39923D9F3CEF39F57550B87FF43D097
S1130A600024A0E640EA900180585695979528F412
S1130A70805C660F771F881F20F02617370748070A
S1130A8030F4621B730B840B202931294A2BA69561
S1130A9017940794202531254A2758F7660F771FA6
S1130AA0881F20F026173707480730F4620B730BB2
S1130AB0840B200D311D411DA09581F7B901842FB0
S1130AC09158880F9695879508959F3F31F09150DE
S1130AD020F4879577956795B795880F911D96951E
S1130AE0879597F9089591505040660F771F881F96
S1130AF0D2F70895991B79E004C0991F961708F05E
S1130B00961B881F7A95C9F780950895AA1BBB1B6D
S1130B1051E107C0AA1FBB1FA617B70710F0A61BF9
S1130B20B70B881F991F5A95A9F780959095BC011A
S1130B30CD01089597FB072E16F4009406D077FD97
S1130B4008D0E4DF07FC05D03EF4909581959F4FD3
S1110B500895709561957F4F0895F894FFCF36
S1130B5E232425262728292A2B2C2D2E2F303132DB
S1130B6E33343536004F00000000000000004F0003
S1130B7E000007000700147F147F14242A7F2A1212
S1130B8E2313086462364955225000050300000001
S1130B9E1C2241000041221C0014083E08140808BF
S1130BAE3E0808005030000008080808080060607D
S1130BBE000020100804023E5149453E00427F4089
S1130BCE0042615149462141454B311814127F10A0
S1130BDE27454545393C4A494930017109050336D3
S1130BEE49494936064949291E0036360000005641
S1130BFE3600000814224100141414141400412267
S1130C0E14080201510906324979413E7E1111112F
S1130C1E7E7F494949363E414141227F4141221C52
S1130C2E7F494949417F090909013E4149497A7F72
S1130C3E0808087F00417F41002040413F017F08A2
S1130C4E1422417F404040407F020C027F7F040803
S1130C5E107F3E4141413E7F090909063E41512123
S1130C6E5E7F09192946264949493201017F01014E
S1130C7E3F4040403F1F2040201F3F4038403F63CD
S1130C8E1408146307087008076151494543007F2F
S1130C9E41410002040810200041417F000402017A
S1130CAE02044040404040000102040020545454C9
S1130CBE787F484444383844444420384444487F78
S1130CCE3854545418087E0901020C5252523E7F75
S1130CDE0804047800047D00002040443D007F1089
S1130CEE28440000417F40007C0418047C7C0804E6
S1130CFE047838444444387C141414080814141822
S1130D0E7C7C080404084854545420043F44402076
S1130D1E3C4040207C1C2040201C3C4030403C4445
S1130D2E281028440C5050503C4464544C44000841
S1130D3E3641000000770000004136080008040820
S1130D4E1008F4013D3D3D3D3D3D3D3D3D3D3D3DA8
S1130D5E3D3D3D3D3D3D3D3D0020202041546D65D2
S1130D6E676131323820474C434420202000534FD2
S1130D7E433330353020486F6E67204A656F6E6797
S1050D8E00005F
S9030000FC
